:020000040800F2
:1000000048130020C1020008652F00085D2F00087A
:10001000612F00088F280008673B000800000000DF
:10002000000000000000000000000000893300080C
:10003000B12B000800000000CD3000087534000826
:10004000DB020008DB020008DB020008DB0200081C
:10005000DB020008DB020008DB020008DB0200080C
:10006000DB020008DB020008DB020008DB020008FC
:10007000DB020008DB020008DB020008DB020008EC
:10008000DB020008DB020008DB020008DB020008DC
:10009000DB020008DB020008DB020008DB020008CC
:1000A000DB020008D9340008DB020008DB0200088C
:1000B000DB020008DB020008DB020008DB020008AC
:1000C000DB020008DB020008DB020008DB0200089C
:1000D000DB020008C9370008DB020008DB02000869
:1000E000DB020008DB020008DB020008DB0200087C
:1000F000DB020008DB020008DB020008DB0200086C
:10010000DB020008DB020008DB020008DB0200085B
:10011000DB020008DB020008DB020008DB0200084B
:10012000DB020008DB020008DB020008DB0200083B
:1001300000F002F800F0B4F80AA090E8000C824445
:100140008344AAF10107DA4501D100F0A9F8AFF222
:10015000090EBAE80F0013F0010F18BFFB1A43F0A5
:1001600001031847E0560000005700000A444FF012
:10017000000C10F8013B13F0070408BF10F8014B06
:100180001D1108BF10F8015B641E05D010F8016B4B
:10019000641E01F8016BF9D113F0080F1EBF10F8AF
:1001A000014BAD1C0C1B09D16D1E58BF01F801CBD2
:1001B000FAD505E014F8016B01F8016B6D1EF9D555
:1001C0009142D6D37047000000230024002500266A
:1001D000103A28BF78C1FBD8520728BF30C148BFAA
:1001E0000B6070476E2900F07382702900F0BD83A8
:1001F000662905F03A82652905F03782672905F0FE
:1002000034826129AFF3008003681B0A28BF41F0E4
:100210008001692900F02082642900F01D8275297F
:1002200000F01A826F2900F04B83782900F089834F
:10023000E92900F0E582E42900F0E282F52900F0E6
:10024000DF82EF2900F04883F82900F088830368F3
:10025000DB0928BF41F08001632900F0C1877329C1
:1002600000F0C687E32900F0D187F32900F0D68794
:10027000002070471FB59DE8030000F023F901F04E
:100280008DF804000020002104F0B8FC401C6060E0
:100290000020002104F09CFCE0601FBD10B510BDE3
:1002A00001F057F81146FFF7E5FF04F0A7F901F058
:1002B00087FB03B4FFF7F2FF03BC01F0B5FB0000BE
:1002C0000948804709480047FEE7FEE7FEE7FEE7EA
:1002D000FEE7FEE7FEE7FEE7FEE7FEE70448054926
:1002E000054A064B704700007934000831010008C8
:1002F0004803002048130020480B0020480B002032
:1003000070B5064600F0BEF8056806F10B0020F057
:100310000704B4429CBF002070BD2B466A68BAB186
:100320001068A04210D304F1080188423CBF506815
:10033000586007D35168101941601168091B0160AA
:1003400058601460101D70BD13465268002AE7D132
:100350002146284600F0A2F80028DED170BD00003A
:100360007CB51D4616460C00009001D02044401E6E
:10037000074B7B442A4669460190304600F0C1F99C
:1003800005461CB10020694600F0CEF928467CBD28
:10039000BD03000070B5064600F078F80468054615
:1003A00030460A22002100F0FFFB2C6070BD4FF0A8
:1003B000000200B5134694469646203922BFA0E8B5
:1003C0000C50A0E80C50B1F12001BFF4F7AF0907C1
:1003D00028BFA0E80C5048BF0CC05DF804EB8900B2
:1003E00028BF40F8042B08BF704748BF20F8022BF5
:1003F00011F0804F18BF00F8012B70474FF0013CFF
:1004000050F8042B51F8043B9A4221D1A2EB0C0383
:10041000934313EACC1317D150F8042B51F8043B43
:100420009A4215D1A2EB0C03934313EACC130BD1E0
:1004300050F8042B51F8043B9A4209D1A2EB0C036B
:10044000934313EACC13DBD04FF00000704700BF9A
:10045000D01A01BAB1FA81F101F0180122FA01F0C3
:10046000CB40C1F12001DBB2C0B2C01A2CFA01F3BB
:10047000D11A914311EAC311E6D170477047704712
:100480007047000000487047EC02002000487047A9
:10049000E4020020704770477047704738B5044643
:1004A0000A4600206946AFF30080002808BF38BD27
:1004B00002460099204600F0BBFB012038BD012018
:1004C00000F03FBFF8B5AFF30080054600200C46B2
:1004D000102000BF0646A819A0420DD93246694631
:1004E0000020AFF30080070008BF00F02AFF00984B
:1004F000A04218BF0546C419FFF7C4FF05600746B0
:10050000F01D20F007004619284600F00AF8B44212
:1005100008BFF8BDA21B31463868BDE8F84000F0BE
:1005200087BB00210160C0E90110704710207047AF
:1005300070B50446051FFFF7A5FF0068002C14BF27
:10054000446870BD002C18BFAC423CBF20466468B4
:10055000F8D301680A18AA4218BF456003D12A6877
:1005600005461144016028684119A1421CBF6C6016
:1005700070BD6168696021680844286070BD10B56D
:10058000FFF784FF006810BD10B50446FFF77EFF3B
:10059000046010BD70B5044685690068C10601D5C8
:1005A000302600E02026C00707D070BDD4E9012125
:1005B00030469047206A401C20626D1EF6D570BD03
:1005C00070B5044685690078C00707D170BDD4E9CD
:1005D000012120209047206A401C20626D1EF6D524
:1005E00070BD09684A0501D540B27047C905FCD500
:1005F00000B2704709684A0501D5C0B27047C90505
:10060000FCD580B2704770B50C460546012A05D06E
:100610002878800600D5EA69002302E0012305E07E
:100620005B1C934202D2E05C0028F9D1A869E6186D
:10063000C01AA861286A184428622846FFF7AAFF52
:1006400004E0D5E9012114F8010B9047B442F8D336
:100650002846FFF7B5FF70BD2DE9F041064600249E
:1006600010687529314616A510D0FFF7BAFF00288B
:1006700002DA404213A507E031688A0701D512A5C6
:1006800002E0490704D511A5012401E0FFF7B2FFFC
:1006900000210A2206F1240709E0B0FBF2FCB0FBBE
:1006A000F2F302FB1C00303078541846491C002835
:1006B000F3D123462A463046BDE8F04100F020BB86
:1006C000000000002D0000002B00000020000000B2
:1006D00011680268006A530501D508700AE0D30565
:1006E00001D5088006E0130603D5C217C1E9000250
:1006F00000E008600120704701694A1C0261087827
:10070000704700B58FB0CDE9013100210591054951
:100710007944CDE903101146684600F031F90FB075
:1007200000BD0000E5FFFFFF0A6802F8010B0A6048
:100730007047D1E900239A4202D2531C0B6010701B
:10074000704700002DE9FF5F15468A460446DFF832
:10075000AC80F8440027D8E900103E46CDE90010EF
:1007600010E03AF816106A4602A800F0CAFD411CD3
:1007700007D02178890603D5E269391891420DD84E
:100780000744761C2078800602D5E069B84205DD72
:10079000AE42E6DB3AF816000028E2D1A069C01BA1
:1007A000A0612046FFF7F6FED8E90010CDE9001061
:1007B000002017E03AF818106A4602A800F0A1FDE0
:1007C000B0F1FF3F81460BD000250DF1080B05E08D
:1007D000D4E901211BF8050090476D1C4D45F7D366
:1007E00008F10100B0428046E4DB206A3844206210
:1007F0002046FFF7E5FEBDE8FF9F00001650000011
:100800002DE9F0418046D21D22F007020025D2E9F1
:100810000002F52915A614D0011E72F1000106DAB6
:100820000023D0EB030063EB020211A608E0D8F826
:1008300000108B0701D50FA602E0490701D50EA6CF
:1008400001251146002408F1240704E000F00AFA0B
:1008500030323A55641C50EA0102F7D12B46324639
:1008600021464046BDE8F04100F04ABA00000000D1
:100870002D0000002B0000002000000030B40021FB
:1008800000F1240408E002F00705D208303542EAFE
:100890004372DB086554491C52EA0305F3D104682E
:1008A000002310A2250708D504F020040C4304D02F
:1008B000C46901230CA2641EC46130BC00F020BADC
:1008C00010B5044621461068FFF794FE0246204604
:1008D000BDE810400023D1E7D21D22F00701D1E985
:1008E0000023CBE70000000030000000F0B40D460C
:1008F0000188090502D5214C7C4402E01F4C7C4450
:100900000E34002100F1240608E002F00F0712095E
:10091000E75D42EA03721B097754491C52EA030758
:10092000F3D102780023120704D5702D06D009B147
:10093000022311342246F0BC00F0E2B90123103446
:10094000F8E770B504460D4621461068FFF752FEE1
:10095000024629462046BDE870400023C6E7D21D66
:1009600022F00703D3E90023C0E70368126843F0CD
:10097000200303600823C3610023B7E7784E00001B
:100980002DE9F05F894604464FF0000ADFF874B1A4
:10099000FB44C0F820A02046E1688847002874D0B6
:1009A000252806D0D4E901219047206A401C206206
:1009B000F1E700265F462046E16888472028054683
:1009C00007DB312D05D2781910F8200C08B1064349
:1009D000F1E7B00701D526F00406C4F81CA00027F3
:1009E000C4F818A02A2D09D0284603F0BAF938B364
:1009F00004EB8708303DC8F8185019E059F8041B7B
:100A0000204604EB87029161E1688847012F054683
:100A100018D1E069002820DA26F020061DE0D8F879
:100A2000180000EB800005EB40003038C8F81800D3
:100A30002046E1688847054603F093F90028EED187
:100A4000012F0AD02E2D08D12046E16888477F1C4F
:100A50000546022F46F02006C4DBA069002803DA11
:100A6000404246F00106A061F00701D026F01006D2
:100A70006C2D0BD0682D09D04C2D39D06A2D35D076
:100A8000742D35D07A2D33D016E038E0E1682F464A
:100A900020468847B842054609D16C2F26D04FF42E
:100AA0008060E168064320468847054604E06C2FD5
:100AB0001AD04FF4807006430DB3A5F141001928F8
:100AC00002D8203546F400664A462946204626606C
:100AD0004E46FFF787FB80B101280BD0F61D26F0AC
:100AE000070000F1080956E74020E4E78020D8E736
:100AF0000020D6E706F104094DE7284652E7206AB0
:100B0000BDE8F09F084E00000FB4002300B589B087
:100B10000CA900910B99CB60204B7B440693204B92
:100B20007B44079304236FF00042CDE901321D4A54
:100B30007A446B4608920246002004F0F8FD09B0A2
:100B40005DF814FB70B506464FF0FF3015460C46B5
:100B5000324686B00091CDE901016946002004903B
:100B600004A8FFF7D1FF03460498211825B108B166
:100B70000A4600E022462A6000280DD0002B02DD44
:100B80000098884208D03246081B69460094CDE997
:100B9000010404A8FFF7B8FF06B070BD0707000006
:100BA0001F070000BB0100002DE9F04791460F46EA
:100BB00080460446002614F8015B2DB100F030F8A1
:100BC0000068405DC007F6D12B2D02D02D2D18D026
:100BD000641E4A463946204600F044FB27B1396876
:100BE000A14201D1C7F800804FF0020471050BD576
:100BF0004042002803DDFFF749FC0460A007BDE880
:100C0000F08746F48066E4E70028F8DAFFF73EFC58
:100C100004606FF00040F2E700487047E4020020F3
:100C200010B500F0BBFB001D10BD00BFD13F0000A0
:100C3000034640688C46002818BF88423CBF0346E4
:100C40004068F8D318681844884207D00CF10300B4
:100C500020F00700001D411A521A0146081D0A60C3
:100C6000FFF766BC30B5B0F10A024FEA900E71F1A1
:100C700000034EEA817EB0EB0E0061EB91014FEA7A
:100C8000101E4EEA017E10EB0E0041EB11114FEAEF
:100C9000102E4EEA016E10EB0E0041EB11214FEACF
:100CA000104E4EEA014E10EB0E0041EB1141401880
:100CB00041F100014FEAD00040EA41704FEAD10112
:100CC00010EB80054FEA810444EA907444EB010480
:100CD0006D1944EB0404521BA3414FF0000348BFBD
:100CE0000A3200D530BD401C41F1000130BD10B5C5
:100CF0000446FFF795FF0068005D00F0010010BD9D
:100D00002DE9F0470D4699469246044600F1240825
:100D10000168880604D5E06921F01001216000E037
:100D20000120A84201DD471B00E00027A1697A19D4
:100D300002EB0900081AA0612078C00602D4204600
:100D4000FFF728FC002608E0D4E901211AF8060084
:100D50009047206A401C761C20624E45F4DB2078C8
:100D6000C0060AD52046FFF715FC06E0D4E90121AC
:100D700030209047206A401C2062381EA7F10107EE
:100D8000F4DC07E0D4E9012118F805009047206A57
:100D9000401C2062281EA5F10105F3DC2046FFF768
:100DA0000FFC2078000602D50220BDE8F087012064
:100DB000FBE770472DE9FF4F0C461E464FF0FF370B
:100DC0008BB0D2E90001DDF860800A908A46C1F359
:100DD0000A5505B93D46002108464FF00000BAF11A
:100DE000000F00F4400005DA00EB80004FF44001F2
:100DF00001EA50004FEA9059B9F1010F00DDB94600
:100E00000A9850EA4A000ED044F61050A5F2FF3579
:100E100045432F14B8F1000F1ED07542291E1EDD68
:100E2000C9F100021CE0B8F1010F4FF0000001D041
:100E3000302103E0F24305E02154401CB042FBDBCB
:100E400030460022002121540B99C1F80880C1E9E5
:100E500000200FB0BDE8F08FBD1B6D1CDEE74A46D9
:100E600000DA694206A800F03DFD06AB93E80700F2
:100E700003AB83E8070050460A9901F034F88DE887
:100E80000700A0F500501F3800900398002D09DDE1
:100E900042F21F014A46084403A90390684601F044
:100EA000BEFA08E0A0F500504A461F3803A9039097
:100EB000684601F0DCFA8DE807000004000C03D05E
:100EC0004FF0FF30410800E01046B8F1000F03D0AA
:100ED0000022009215461EE0751E05D4FFF7C2FEE3
:100EE000303262556D1EF9D5B3460122084302D057
:100EF00000227F1C04E02078302801D100227F1ED0
:100F0000002A099786D01DE0112D07DAFFF7AAFE07
:100F1000303262556D1C50EA0102F5D1084302D00F
:100F20000098C8B10EE00021681E05E0235C625CF9
:100F300063542254401E491C8142F7DBAB46A81B78
:100F4000401E0990002004F80B000B98099AC0F885
:100F50000880C0E9002B7CE711264FF0000859E714
:100F60002DE9F04F88460446D21D22F0070191B0CA
:100F7000D1E90001CDE90A0102F078FE02460B98A2
:100F8000C00F01D02D2007E02068810701D52B205C
:100F900002E0202101EAC000032A099001D0072ABB
:100FA00005DB03464146204600F0FCF90BE12078C2
:100FB000800601D5E06900E00620B8F1650F8146A2
:100FC00006D0B8F1660F18D0B8F1670F70D131E0D4
:100FD0000020B9F1110F009001DB112301E009F1AC
:100FE00001030AAA01A90CA8FFF7E4FEDDE90C70D1
:100FF000002609F10105834647E001204B46009099
:101000004FF000470AAA01A90CA8FFF7D3FEDDE9BB
:101010000DB00C995D46002610B909F101000D18BC
:10102000B9EB050003D4C0F1FF3609F10105A5EBCA
:1010300009002BE0B9F1010F01DA4FF0010900209E
:10104000B9F1110F0090484601DD112300E003467D
:101050000AAA01A90CA8FFF7ADFEDDE90C704D4608
:1010600000268346207800070AD4AB4500DA5D46A7
:1010700001A8012D04DD411911F8011C302907D008
:101080004F4502DA17F1040F04DA012082460FE01F
:101090006D1EEEE7002F02DCED1B3E4403E0781CE2
:1010A000A84200DD7D1CB81B00F1010A4FF000478B
:1010B0002078000703D4AA4501DB4FF0FF3A002156
:1010C000B7F1004F0DF143088DF8431024D00220F2
:1010D0002B23002F01DA7F422D230A21021EA0F1CB
:1010E000010000DC5FB197FBF1FC97FBF1F201FB23
:1010F0001C7C17460CF1300C08F801CDEEE7A8F186
:10110000010003702188090501D5452100E0652112
:10111000A0F1010800F8011C09980FA9A1EB08072C
:10112000FF1D00B10120411901EBEA70A1693844AB
:10113000081A401EA0612078C00602D42046FFF79E
:1011400029FA099828B1D4E901219047206A401C66
:1011500020622078C00622D52046FFF71BFA1EE049
:10116000002E04DBB34502DD01A8805D00E03020E5
:10117000D4E901219047206A401C2062761CAAF124
:1011800001005FEA000A0AD100F008F9C0680168AE
:10119000405CD4E901219047206A401C2062281E4F
:1011A000A5F10105DCDC07E0D4E9012118F8010B09
:1011B0009047206A401C2062381EA7F10107F3DC2B
:1011C0002046FFF7FDF9032011B043E610B543694F
:1011D00013B1AFF3008001E0FFF715FA012010BD55
:1011E000127800F124010A7000224A700122EDE712
:1011F00011684FF0FF32E9E710B5436913B1AFF35F
:10120000008001E0FFF79EFA012010BD128800F176
:10121000240182840022C2840122EDE711684FF08C
:10122000FF32E9E7426842B1016811F8013B23B19E
:10123000521EC0E90012184670470121C160881E85
:10124000704742685AB1C368016843B983688B42EA
:1012500005D0491E521CC0E90012002070474FF013
:10126000FF3070472DE9F05F824615468B46002718
:101270000AF10104B9460078302801D09DB113E08D
:1012800014F8010B0127782803D0582801D045B164
:101290000AE00DB1102D07D1002714F8010B10251D
:1012A00002E0082500E00A250026B0460EE005FB16
:1012B000080005FB06F101271FFA80F801EB104634
:1012C000B6F5803F00D3B94614F8010B294600F06B
:1012D000A9F80028EBDABBF1000F05D00FB1641EAE
:1012E00000E05446CBF80040B9F1000F06D0FFF7FC
:1012F000CDF802210160C81EBDE8F09F48EA064013
:10130000FAE770B516460C460546FFF789FC0368F8
:1013100093F80101012806D0FF2C0FD8185D68B1A1
:1013200001202C7070BDD3F807013246214603F22C
:10133000071303442846BDE8704018474FF0FF30BC
:1013400070BD10B500F048FBBDE8104000F03EBB9A
:1013500070477546FFF760FCAE4605006946534688
:1013600020F00700854618B020B5FEF7B7FFBDE8AE
:1013700020404FF000064FF000074FF000084FF0FC
:10138000000B21F00701AC46ACE8C009ACE8C0098D
:10139000ACE8C009ACE8C0098D467047004870470A
:1013A000040300202DE9F0411F460446032601688E
:1013B000072A01F4006004DB08B116A505E016A5B4
:1013C00003E008B115A500E015A521F0100020608C
:1013D000A069C01EA0610FB1401EA0612046FFF7AA
:1013E000D9F84FB1D4E9012138469047206A401C12
:1013F0002062C01C206206E0206AFAE7D4E90121DD
:1014000015F8010B9047761EF8D22046FFF7D8F862
:10141000BDE8F0814E414E006E616E00494E4600BF
:10142000696E66003A2800D2303820F02002412A46
:1014300001D3A2F13700884201D34FF0FF3070474B
:101440002DE9FF4F064689B00878FF2806D0491CD1
:101450002D2805D000244FF0000908E000200CE002
:101460000124F8E709EB8903491C00EB43090878DC
:10147000FF28F7D114B1C9F100008146107800258A
:101480002C46AA4629462D2801D02B2804D1521CCF
:101490002D2813D0002082468B461078FF280FD0CD
:1014A0004FF0000C0A21521CA5FB017804FB0181BE
:1014B00005FB0C11C5194BEB0104EEE70120EAE72F
:1014C000002108464FF00000BAF1000F02D000EBF7
:1014D00080004008C0F38158B8F1010F01DD4FF0E2
:1014E000FF380C9809EB000755EA040009D04FF0CB
:1014F000020917F5FA7F0BDA4FEACA70C6E900B0A5
:1015000012E04FEACA70C6E900B00DB0BDE8F08F36
:10151000B7F5FA7F0DDDF0487844D0E90010C6E950
:10152000001040EACA707060FEF7B0FFC0F800908B
:10153000EBE7391E02DAC8F1000200E0424600DAA9
:10154000794206A800F0CEF906AB93E8070003AB9A
:1015500083E8070044F23E005BEA0401009058462D
:1015600004D144F21E012C465D460091210C090471
:10157000014306D10099240444EA15442D0410398E
:10158000009104F07F41014306D10099240244EA0E
:1015900015642D020839009104F07041014306D111
:1015A0000099240144EA15742D01091F009104F0EB
:1015B0004041014306D10099A40044EA9574AD006E
:1015C000891E009104F00041084304D100986D1970
:1015D0006441401E009042466846002FCDE9014517
:1015E00003A902DD00F057FF01E000F02CFFBAF183
:1015F000000F04460D4601D084F0004440F2FF770E
:1016000024F00040284303D0C4F30A50B84212D15A
:10161000FEF73CFFC0F80090C4F30A50B8420AD16C
:10162000AE487844D0E90010C6E9001004F000414B
:101630000843706069E7C6E9005466E72DE9FF4F8B
:101640001F464FF0000A4FF0FF38454691B0D7E9EA
:101650000146CDF83CA0FFF7A1FEC0680168405CE0
:101660001090B96912986D1C8847396A814688477D
:101670000028F6D1B9F1FF3F0AD0002E24F4D0643F
:1016800011DDB9F12B0F08D0B9F12D0F0BD102E00C
:10169000404615B03AE744F48064B96912986D1C6D
:1016A0008847761E8146600504A901D52D2000E0FB
:1016B0002B20002E01F1010B0DF130088DF81000E8
:1016C0003FDDB9F1690F08D0B9F1490F05D0B9F183
:1016D0006E0F02D0B9F14E0F1CD13B4601A8009508
:1016E00080E85002DDE912126FF0020004F023F8E6
:1016F000C11CCED10EE0B96912986D1C8847814695
:101700001398761E44F4007405600F98401C002E58
:101710000F9016DDB9F1300FEDD0B9F1780F02D08E
:10172000B9F1580F0DD10F9801280AD13B46CDE9E8
:101730000054DDE91212001F029603F0FAFFC11CEB
:10174000A7D1109989453ED144F0800406E0139951
:10175000681CAAF1010A44F400740860B9696D1CA0
:101760001298761E884730288146F0D02BE01099D9
:10177000894505D1200603D4761E44F0800418E084
:10178000484602F0EEFA08B3761E0DF123018B45B0
:1017900044F4007408D2A9F130000BF8010B2006C4
:1017A00007D5AAF1010003E0200602D40AF10100E6
:1017B0008246A00502D51399681C0860B969129881
:1017C0006D1C88478146002ED1DC53E0002E51DD90
:1017D000B9F1650F02D0B9F1450F4BD1A00549D53C
:1017E000B9696D1C1298761E24F440748847002E47
:1017F00081460CDD2B2804D0B9F12D0F07D144F41C
:101800008074B96912986D1C8847761E8146E00580
:1018100001D52D2100E02B2108F8011BCDF8008017
:1018200021E0761E0DF13901884544F400740CD294
:10183000A9F1300010F0FF0088F8000002D10099F3
:10184000884509D908F1010806E0E00501D52448DA
:1018500001E042F20F708246B96912986D1C884708
:10186000814613980560002E04DD484602F079FA9F
:101870000028D6D1F96912988847FF2053468BF883
:10188000000088F8000000200A900B9004AA0CA920
:101890000AA8FFF7D5FDA00502D46FF00100F8E615
:1018A00014F0240F0AD0E00714D13868DDE90A12D9
:1018B000031D3B600068C0E900120BE00AA96846FE
:1018C00002F0F8F9E00705D13868009A011D396087
:1018D000006802602846DCE6484300003E42000003
:1018E000F1D8FFFF2DE9F047814616468AB033480C
:1018F00078440DC88DE80D0030487844801C03AC56
:101900000DC884E80D0041F69B300844372190FB58
:10191000F1F290FBF1F5A5F1800501FB12041B3CEF
:1019200002D56442012000E00020DFF890A080464C
:101930000027FA44AAF1BE0A0DE0E00709D03246BA
:10194000684607EB47010AEB810100F090FD8DE846
:10195000070064107F1C002CEFD1184F7F44AC3F70
:1019600018E0E80714D007EB04100DF1180A90E80E
:101970000E008AE80E00C068F04201D19819089064
:10198000324606A903A800F072FD03AB83E8070006
:101990006D10641C002DE4D132466946B8F1000F89
:1019A00003A802D000F03BFD01E000F060FDC9E9B2
:1019B0000001C9F808200AB0BDE8F087383F0000F0
:1019C0000446AFF300802046FEF773FC002801D0E8
:1019D00000F02AB87047000010B5012805D000219A
:1019E00003A000F027F8012010BD09A1F8E70000CE
:1019F00053494752544D454D3A204F7574206F66F8
:101A00002068656170206D656D6F7279000000005F
:101A10003A2048656170206D656D6F727920636F43
:101A2000727275707465640001491820ABBEFEE7E0
:101A30002600020070B505460C460A2000E06D1C29
:101A400000F011F835B128780028F8D102E0641CC4
:101A500000F009F814B120780028F8D1BDE87040F2
:101A60000A20AFF3008008B569468DF80000032016
:101A7000ABBE08BD2DE9FF4F1F464FF03C0987B0B4
:101A80004FF00042DDE9141001F10108DDF858A023
:101A900002EA405003900020049083460546044625
:101AA0000590B969461E08988847AAF1010A029074
:101AB000BAF1000F37DD02982E2815D01021FFF75C
:101AC000B1FC00282ADB4FF0010B0499014316D02A
:101AD000B9F1000F0BDB4A46C11700F0F1F90543DD
:101AE0000C43A9F1040905E00120059007E008B1C5
:101AF00045F0010501200490059800B9361DB9692B
:101B0000089808F101088847BBF1000FAAF1010A03
:101B10000290CDD00999C1F80080C9E702987028D9
:101B200008D0502806D0F96908988847BBF1000F03
:101B300014D04FE0002002900120BBF1000F049070
:101B400009D0B969089808F101088847AAF1010984
:101B5000B9F1000F07DCF969089888476FF00100B8
:101B60000BB0BDE8F08F2B2804D02D280CD14FF0FE
:101B7000FF300490B969089808F101088847A9F175
:101B80000109B9F1000FE6DD411CE4D00A21FFF79D
:101B900049FC0028DFDB029908F1010801EB810113
:101BA00000EB41000290B969089888470A21FFF7C5
:101BB00039FC099AA9F10109B9F1000FC2F80080B6
:101BC00001DD0028E7DAF969089888470499029846
:101BD00000FB016655EA040004D004F0404109000E
:101BE00002D006E0039898E0A40044EA9574AD00A2
:101BF000B61E04F00041080002D16D196441761E42
:101C0000159810F0240F03D04FF00B095C4803E047
:101C10004FF028096FF07D008246564507DAAAEB9F
:101C200006018944B9F1410F01DD4FF0410901205E
:101C30000021A9F1010200F043F9024628400B46B9
:101C40002140084301D0012100E00021501E0291F3
:101C500043F1FF3128402140084301D0012000E03A
:101C600000200299834651EA0B014FD0002108461B
:101C70004FF00000039900F4400039B100EB800000
:101C80004FF4400100EBD07001EA6000801501289C
:101C900002DD4FF0FF3000E013D0401C36D0029838
:101CA00060B3BBF1000F0CD14A460120002100F0C7
:101CB00007F928402140084301D0012000E000201E
:101CC000E0B101204A46002100F0FAF8034640192D
:101CD0000A4661412D1A8C4111D3B9F1400F09DD3B
:101CE000159810F0240F02D0AAF1340603E0AAF1EF
:101CF000170600E0761C00254FF0004406E05B1E4E
:101D000042F1FF3220EA030521EA0204CAF1010090
:101D1000B04206DA1B490398084301900020009066
:101D20000EE0039AC4F3D321E80A0A43164940EAB5
:101D300044500A433146CDE90002684602F006F8F5
:101D4000159810F0240F0BD01598C00715D13868DE
:101D5000DDE90012031D3B600068C0E900120CE0E1
:101D600002A8694601F0A6FF1598C00705D138689A
:101D7000029A011D3960006802604046F0E60000EA
:101D800002FCFFFF0000F07F0000F03F2DE9FF4F55
:101D900092461D4685B04FF00041DDE9124BDDE96A
:101DA00014727F1E01EA4B50414940F0FF4940EA5E
:101DB0000108002122F020004928049102D04E2879
:101DC00028D04CE03BA0012607C88DE80700A96990
:101DD0000698641C88477F1E014606D41DF806003D
:101DE00018B121F0200181420BD0E969069888479B
:101DF000032E34D0082E32D06FF0010009B0BDE8B8
:101E0000F08F761C032E01D0082EE0D1601CCAF89A
:101E10000000DCE7A9690698641C88477F1E2AD465
:101E200020F02000412826D1A9690698641C884723
:101E30007F1E20D420F020004E281CD1A9690698CE
:101E4000641C88477F1E48F4002849F48009CAF8BA
:101E5000004001D4282806D0E969069888475FEA3F
:101E6000CB7012D022E0A9690698641C88477F1EB7
:101E700001D4002803DAE96906988847BCE72928D5
:101E8000F1D1641CCAF80040E9E71BF0240F07D029
:101E900028680499031D2B600068C0E9001805E05C
:101EA0002868021D2A600068C0F800902046A5E757
:101EB0000000F07F494E46494E4954590000000049
:101EC000B2F120030AD5C2F1200301FA02F120FA8F
:101ED00003F300FA02F041EA0301704700FA03F14C
:101EE0004FF0000070475FEA400C08BF91F0000F10
:101EF0004FEA8C234FEAC12243EA51514FEA1C506A
:101F000018BF00F5F0404FEA300018BF41F0004123
:101F10005FEA6C5C00F02980BCF1FF3F08BF40F035
:101F200080407047130C06BF12044FF0100C4FF0A6
:101F3000000C130E04BF12020CF1080C130F04BFA7
:101F400012010CF1040C930F04BF92000CF1020C6F
:101F5000D30F04BF52000CF1010C11464FF00002E8
:101F6000A0F11F00A0EB0C00704711F0004F08BF5C
:101F7000704731F000413FF4D5AF0B0C06BF0904A8
:101F80004FF0100C4FF0000C0B0E04BF09020CF1C7
:101F9000080C0B0F04BF09010CF1040C8B0F04BFDC
:101FA00089000CF1020CCB0F04BF49000CF1010CAD
:101FB000CCF12003A0EB0C0022FA03F302FA0CF29E
:101FC00041EA030100F10100704720F07F4C80EAF4
:101FD000030023F07F47ACEB070303F57C5300F0CD
:101FE000004003F1FF032DE980494FEA154B09B486
:101FF0004FEA144325EA0B4E24EA03480FF2042665
:1020000006EB132749083E785FEA320203FB0667B6
:10201000C7F5000707FB06F64FEA54374FEAD646E6
:1020200006F1020607FB066CCCF1005C4FEA1C4788
:102030002CEA074C07FB06F40CFB06F504EB1546EF
:102040004FEA961634BF00204FF000404FEAD137D8
:1020500006FB07FC4FEA1C4C0CFB0BF7D21B03FBE7
:102060000CF761EB07010CFB0EF7B0EB074072EBCE
:1020700017420CFB08F734BFA2EB0742B2EB074252
:1020800061EB17414FEA0C444FEA910706FB07FC4E
:102090004FEA1C4C0CFB0BF7B0EBC74072EB57320E
:1020A00003FB0CF734BFA2EBC742B2EBC74261EBB4
:1020B00057310CFB0EF7B0EBC70072EB57720CFBFD
:1020C00008F734BFA2EBC702B2EBC70261EB57714E
:1020D000039F4FEA816141EA921104EBCC044FEA7D
:1020E000D1374FEA826206FB07FC42EA90124FEAC0
:1020F00080604FEA1C4C0CFB0BF7D21B03FB0CF768
:1021000061EB07010CFB0EF7B0EB074072EB1742D7
:102110000CFB08F734BFA2EB0742B2EB074261EBBE
:1021200017414FEA8C554FEA910704EB9C2406FBBC
:1021300007FC4FEA1C4C0CFB0BF7B0EBC74072EBF3
:10214000573203FB0CF734BFA2EBC742B2EBC742D6
:1021500061EB57310CFB0EF7B0EBC70072EB577217
:102160000CFB08F734BFA2EBC702B2EBC70261EB6E
:10217000577115EB4C254FEA816141EA92114FEA04
:1021800082624FEAD13742EA901206FB07FC44F123
:1021900000044FEA80604FEA1C4C0CFB0BF7D21B8B
:1021A00003FB0CF761EB07010CFB0EF7B0EB0740EC
:1021B00072EB17420CFB08F734BFA2EB0742B2EBFD
:1021C000074261EB174115EB1C154FEA813141EADB
:1021D00092414FEA823242EA90424FEA80304FEA1F
:1021E0000C7644F1000448EA03434EEA0B484FF0F2
:1021F000000EB2EB080C71EB030724BF62463946B0
:102200004EEB0E0E4FF0000B0018524149414BEBC4
:102210000B0BB2EB080C71EB03077BF1000B24BF37
:10222000624639464EEB0E0E4FF0000B001852413D
:1022300049414BEB0B0BB2EB080C71EB03077BF145
:10224000000B24BF624639464EEB0E0E51EA0207E0
:1022500018BF46F0010616EB0E7655F1000254F158
:10226000000103D5BDE88901BDE80088BDE889010A
:10227000BDE80048B619524141EB0101A3F1010349
:10228000704780807F7E7D7C7B7A797877767675E3
:102290007473727171706F6E6E6D6C6C6B6A6A695B
:1022A0006868676666656464636362616160605FF5
:1022B0005F5E5E5D5D5C5C5B5B5A5A59595858576E
:1022C00057565655555554545353525252515150D6
:1022D00050504F4F4F4E4E4D4D4D4C4C4C4B4B4B29
:1022E0004A4A4A494949484848474747474646466F
:1022F00045454544444444434343434242424241AA
:102300004141000046EA0646A3F570534FEA1646DF
:1023100046EA42564FEAD22242EA415210B54FEA0B
:10232000D121A3F1010300F017F820F0004000F1E3
:10233000010C00F0004701EB00501146BCF5006FA6
:1023400040EA070000D210BD02484FF0000140EA09
:10235000070010BD0000F07F002B26D4770021D0AD
:102360001CB54FEA370703B44FF010004FF01001CF
:102370004FF000000FBCBDE810400BF1010BBBF1AA
:10238000010F08BF5FEA170722BF12F1010211F126
:1023900001014FF0004143F1000300F0004043EA27
:1023A00000007047F9D35708DAE746EA064613F10A
:1023B000400F4FEA16461FDD13F1200FDFBF164313
:1023C0000A46002120335B42C8D0C3F1200746EA09
:1023D000064602FA07F74FEA164646EA0706C3F131
:1023E000200722FA03F201FA07F721FA03F14FF06E
:1023F000000342EA0702B1E746EA020646EA064659
:102400004FEA164646EA0106BCBF46EA0646360CC7
:102410004FF000034FF000024FF000019EE72DE95E
:10242000C048934630B491E8380007C831EA400C00
:1024300048BF34EA430C03D5FFF7C7FDFFF78CFF15
:10244000F0BCBDE800882DE9C048934630B491E85F
:10245000380007C831EA400C48BF34EA430C03D5C2
:10246000FFF7B3FDFFF74EFFF0BCBDE800882DE994
:10247000C048934630B491E8380007C810F0804F48
:1024800008BF13F0804F03D100F019F8FFF764FF85
:10249000F0BCBDE800882DE9C048934630B491E80F
:1024A000380007C810F0804F08BF13F0804F03D1E9
:1024B00000F005F8FFF726FFF0BCBDE8008820F02B
:1024C0007F4780EA030023F07F4C07EB0C03A3F562
:1024D0007C5300F00040A3F1FE0392F0000F00F0E7
:1024E000B38095F0000F00F077802DE901494FEAA5
:1024F00011404FEA144621EA004800FB06FC24EA9A
:10250000064708FB06F607FB08F800FB07F718EB81
:1025100006484CEB164C4FEA124B18EB07484FEAB3
:1025200015464CEB174022EA0B4E0BFB06FC25EA46
:1025300006470EFB06F607FB0EFE0BFB07F71EEB2E
:10254000064E4CEB164C4FF000061EEB074E4CEBC4
:10255000174B18EB0B0840F1000018EB0E0B58EB73
:10256000000840F100008F1A4FF000013CBFC94342
:10257000661B14BFB5EB040C00213CBFC943F61B1E
:102580004FEA17444EEA8E0E27EA04454FEA1C47ED
:1025900004FB07622CEA074C05FB07F70CFB05F66A
:1025A00004FB0CFC16EB074642EB174216EB0C46FD
:1025B00042EB1C421BEB060658EB0202414146EA85
:1025C0009E0601D5BDE80189B619524141EB0101D2
:1025D000A3F10103BDE801894FEA14454FEA114711
:1025E00024EA054621EA074C05FB07F406FB07F73A
:1025F0000CFB06F105FB0CFC11EB074144EB174407
:102600004FEA124711EB0C4144EB1C4422EA074C01
:1026100005FB07F206FB07F70CFB06F605FB0CFCB7
:1026200016EB074642EB174216EB0C4642EB1C45F5
:102630006A1854F1000148BF7047B619524141EB86
:102640000101A3F10103704795F0000F37D04FEA65
:1026500011424FEA144721EA024624EA074C02FBE2
:1026600007F106FB07F70CFB06F402FB0CFC14EB6E
:10267000074441EB17414FEA154714EB0C4441EB7B
:102680001C4125EA074C02FB07F506FB07F70CFB8C
:1026900006F602FB0CFC16EB074645EB174516EB5E
:1026A0000C4645EB1C42121951F1000148BF70471E
:1026B000B619524141EB0101A3F1010370474FEA02
:1026C00014454FEA114724EA054621EA074C05FB69
:1026D00007F106FB07F70CFB06F24FF0000605FBBF
:1026E0000CFC12EB074241EB174112EB0C4251EB91
:1026F0001C4148BF7047921841EB0101A3F101034F
:10270000704721B1826842F00102826003E0826872
:1027100022F0010282607047014600208A6802F0C0
:1027200004020AB1012000E0002070470146C86C95
:1027300080B270470246002013680B400BB10120A5
:1027400000E000207047014600208A6802F008027D
:102750000AB1012000E000207047000030B50246B9
:102760000020002350680F4C20400D790C6844EA8B
:1027700005242043506090680B4C2040D1E902545E
:102780002C434D7944EA450420439060D06A20F4FC
:1027900070000C7C641EE4B2234340EA0350D06214
:1027A00030BD0000FFFEF0FFFDF7F1FFF0B504467D
:1027B0000D4600200021092D11DDE068A5F10A0673
:1027C00006EB4607072606FA07F18843A5F10A0635
:1027D00006EB460603FA06F10843E0600CE02069C8
:1027E00005EB4507072606FA07F1884305EB450682
:1027F00003FA06F108432061072A0FDA606B561EC0
:1028000006EB86071F2606FA07F18843561E06EBDD
:10281000860605FA06F10843606322E00D2A0FDA06
:10282000206BD61F06EB86071F2606FA07F18843A2
:10283000D61F06EB860605FA06F10843206310E072
:10284000E06AA2F10D0606EB86071F2606FA07F1DD
:102850008843A2F10D0606EB860605FA06F1084349
:10286000E062F0BD816841F008018160704721B1EC
:10287000826842F4A002826003E0826822F4A0022F
:1028800082607047816841F004018160704700BF39
:10289000FEE700002DE9FF4701F00AFE814601F046
:1028A000A1FD82464FF01E08504602F01FFD04466F
:1028B0000D46484602F01AFD8DE83300894802783B
:1028C00089A18D4802F03FF98C480168484602F022
:1028D00026FE34D2012001F04BFA26E001F0E8FD9B
:1028E0008146504602F002FD04460D46484602F07D
:1028F000FDFC8DE833007B4802787BA17E4802F026
:1029000022F90A2001F014FD7D48007801280CD13D
:10291000484602F0EBFC044622460B4679A1764875
:1029200002F011F9002076490870744801684846A1
:1029300002F0F5FDD2D3002001F01AFA39E0814807
:102940000168484602F06CFD33D2012001F0B6FF69
:1029500026E001F0ADFD8146504602F0C7FC04467A
:102960000D46484602F0C2FC8DE833005D4802780F
:102970005DA1614802F0E7F80A2001F0D9FC604847
:10298000007801280CD1484602F0B0FC04462246EB
:102990000B465CA1584802F0D6F800205849087050
:1029A00068480168484602F03BFDD2D3002001F0A0
:1029B00085FF65480168504602F0B1FD3AD201201A
:1029C00001F07CFF012001F0D3F926E001F00AFDBF
:1029D0008246504602F08AFC04460D46484602F004
:1029E00085FC8DE833003F4802783FA1424802F061
:1029F000AAF80A2001F09CFC4148007801280CD17B
:102A0000504602F073FC044622460B464FA13A485A
:102A100002F099F800203A4908704B480168504686
:102A200002F0FEFCD2D2002001F048FF002001F0AD
:102A30009FF943E053480168504602F0F1FC3DD253
:102A400051A12D4802F07FF8012001F037FF01204D
:102A500001F0F8FF26E001F0C5FC8246504602F086
:102A600045FC04460D46484602F040FC8DE8330024
:102A70001C4802781CA1204802F065F80A2001F0E9
:102A800057FC1F48007801280CD1484602F02EFC64
:102A9000044622460B463EA1174802F054F8002097
:102AA0001749087037480168504602F038FDD2D205
:102AB000002001F003FF002001F0C4FF504602F0A7
:102AC00015FC04460D46484602F010FC8DE8330024
:102AD0000448027804A1084802F035F8012004B047
:102AE000BDE8F0873000002070726F20256420253B
:102AF000662025660A000000003801403C000020E6
:102B0000540000205468652074656D7065726174AE
:102B1000757265206E6F772069732025662E4920B7
:102B200063616E206E6F74206C6561766520756ED2
:102B300074696C206974206973206E6F726D616CAA
:102B40000A00000040000020340000205468652086
:102B500073616C74206E6F772069732025662E492F
:102B60002063616E206E6F74206C656176652075E0
:102B70006E74696C206974206973206E6F726D6168
:102B80006C0A0000380000206C6F7765720A000044
:102B90005468652073616C74206E6F7720697320B0
:102BA00025662E616464696E672073616C740A0027
:102BB000704700000149C8607047000000200240D3
:102BC00030B5044604254FF4302000F09FF8054648
:102BD000042D17D10C48006940F002000A49086131
:102BE00008464461006940F0400008614FF430201D
:102BF00000F08CF805460448006941F6FD71084074
:102C000001490861284630BD0020024004200B49DC
:102C1000C96801F0010109B101200EE00749C96846
:102C200001F0040109B1022007E00449C96801F07C
:102C3000100109B1032000E0042070470020024089
:102C40000348006940F080000149086170470000B6
:102C5000002002400549096821F01001034A116073
:102C600011460968014311607047000000200240CE
:102C700078B506460C46042500200090E80200F0D6
:102C800045F80546042D24D11348006940F00100A1
:102C9000114908613480E80200F038F80546042D37
:102CA00010D1B01C0090200C00990880E80200F0C0
:102CB0002DF805460848006941F6FE7108400649AE
:102CC000086106E00448006941F6FE7108400249C7
:102CD0000861284678BD000000200240014600201F
:102CE000034A106800F03800084310607047000085
:102CF000002002400248034948600348486070478A
:102D00002301674500200240AB89EFCD00B50246A4
:102D10000423FFF77BFF034603E0FFF777FF03463B
:102D2000521E012B01D1002AF7D102B90523184602
:102D300000BD2DE9F04102460025002600200023B9
:102D40000024002791F803C00CF00F0591F803C090
:102D50000CF0100CBCF1000F03D091F802C04CEA4B
:102D6000050591F800C0BCF1000F31D014680020B7
:102D70002BE04FF0010C0CFA00F3B1F800C00CEAA4
:102D800003069E4220D183004FF00F0C0CFA03F78C
:102D9000BC4305FA03FC4CEA040491F803C0BCF1FF
:102DA000280F06D14FF0010C0CFA00FCC2F814C039
:102DB0000AE091F803C0BCF1480F05D14FF0010CB7
:102DC0000CFA00FCC2F810C0401C0828D1D31460D3
:102DD000B1F800C0BCF1FF0F34DD546800202EE0D4
:102DE00000F1080C4FF0010808FA0CF3B1F800C02C
:102DF0000CEA03069E4221D183004FF00F0C0CFA1F
:102E000003F7BC4305FA03FC4CEA040491F803C041
:102E1000BCF1280F05D100F1080C08FA0CF8C2F833
:102E2000148091F803C0BCF1480F07D100F1080CE1
:102E30004FF0010808FA0CF8C2F81080401C08286E
:102E4000CED35460BDE8F0810246002093680B4069
:102E50000BB1012000E00020704741617047016123
:102E60007047000010B5282303220821164801F0FE
:102E70007BFB282303221021134801F075FB282334
:102E800003222021104801F06FFB28230322402158
:102E90000D4801F069FB1023032299010B4801F052
:102EA00063FB10230322D901084801F05DFB1023C6
:102EB00003222021064801F057FB10230322402162
:102EC000034801F051FB10BD000801400010014013
:102ED000000C014010B51C481C49097850F831001D
:102EE0001B49086018481949097800EBC10040687F
:102EF0001749486015480078401C14490870084676
:102F00000078042801DB002008700F480F49097879
:102F100050F831000E490968401A0E4908600A4805
:102F20000A49097800EBC100406809494968401A1C
:102F3000084948600A465168106801F095FD002074
:102F40000549087010BD000000000020300000207E
:102F500020000020280000204002002000BFFEE7E3
:102F600000BFFEE77047000070B5002100230F226C
:102F7000C47804B3154C246804F4E064C4F5E06438
:102F8000210AC1F10403CA40447804FA03F18478A9
:102F90001440214309010E4C0678A155047804F031
:102FA0001F050124AC4005786D11AD0005F1E02549
:102FB000C5F8004109E0047804F01F050124AC4085
:102FC000044D0678761145F8264070BD0CED00E002
:102FD00000E400E080E100E002490143024A1160A0
:102FE000704700000000FA050CED00E010B58AB053
:102FF0000446324890FBF4F03149086018208DF8FF
:10300000230003208DF822004FF41060ADF820005B
:1030100008A92C48FFF78DFE2320ADF814000020EE
:10302000ADF816002648008880B2ADF818000020E0
:10303000ADF81A008DF81C0005A9234800F072FBBA
:103040007020ADF804000120ADF806000420ADF8B2
:1030500008000020ADF80A000220ADF80C000020A6
:10306000ADF80E004FF48070ADF810000020ADF800
:10307000120001A9144800F0C5FA01A9124800F095
:103080000DFB01221146104800F0B3FA19208DF80B
:10309000240001208DF827008DF825008DF82600EA
:1030A00009A8FFF761FF0121074800F076FA012126
:1030B000054800F07EFA0AB010BD000000093D008E
:1030C0004C02002000080140002C01407047000025
:1030D00029B1064AD2690243044BDA6104E0034A8B
:1030E000D2698243014BDA61704700000010024050
:1030F00029B1064A92690243044B9A6104E0034AEB
:1031000092698243014B9A617047000000100240AF
:103110000F48006840F001000D490860084640680B
:103120000C4908400A494860084600680A490840B6
:10313000074908600846006820F4802008600846B7
:10314000406820F4FE0048604FF41F00886070471C
:10315000001002400000FFF8FFFFF6FE30B500212E
:103160000022002400232D4D6D6805F00C0121B1D3
:10317000042905D0082923D105E0294D056022E066
:10318000274D05601FE0254D6D6805F47012234D35
:103190006D6805F48034022505EB92421CB9214D7F
:1031A000554305600BE01D4D6D6805F400351DB1FC
:1031B0001C4D5543056002E0194D5543056002E082
:1031C000174D056000BF00BF144D6D6805F0F0019C
:1031D0000909154D6B5C0568DD4045600F4D6D6854
:1031E00005F4E061090A104D6B5C4568DD408560BF
:1031F0000A4D6D6805F46051C90A0B4D6B5C45685A
:10320000DD40C560054D6D6805F44041890B074DF3
:103210006B5CC568B5FBF3F5056130BD001002407D
:1032200000127A0000093D005402002064020020D0
:1032300010B501460022002300204A11012A02D1C4
:10324000094C236806E0022A02D1074C236A01E0F8
:10325000054C636A01F01F02012494401C400CB12C
:10326000012000E0002010BD00100240024840682C
:1032700000F00C00704700000010024001460020E2
:10328000034A506820F0F000084350607047000087
:10329000001002401149096821F480310F4A116081
:1032A0001146096821F480211160B0F5803F03D0F8
:1032B000B0F5802F0ED106E00849096841F480314D
:1032C000064A116007E00549096841F4A021034A54
:1032D000116000E000BF00BF704700000010024016
:1032E00001460020034A506820F4E0600843506023
:1032F000704700000010024001460020034A506859
:1033000020F4605040EAC100506070470010024055
:103310000149086670470000000042420246002052
:10332000044B586820F47C1042EA01031843014B17
:10333000586070470010024001460020034A506860
:1033400020F0030008435060704700000010024066
:1033500038B5002000900024002500BF3120FFF781
:1033600067FF05460098401C00900098B0F5A06FDC
:1033700001D0002DF2D03120FFF75AFF08B101240F
:1033800000E00024204638BD704710B500F002F878
:1033900010BD00000CB5002001900090334800687B
:1033A00040F480303149086000BF3048006800F4C4
:1033B000003000900198401C0190009818B90198C5
:1033C000B0F5A06FF1D12948006800F4003010B1C9
:1033D0000120009001E0002000900098012843D1D6
:1033E0002348006840F01000214908600846006842
:1033F00020F0030008600846006840F00200086002
:103400001A484068194948600846406848600846BC
:10341000406840F4806048600846406820F47C10B2
:1034200048600846406840F4E81048600846006874
:1034300040F08070086000BF0C48006800F0007029
:103440000028F9D00948406820F003000749486087
:103450000846406840F00200486000BF03484068EA
:1034600000F00C000828F9D10CBD0000001002404B
:10347000002002407047000010B51348006840F07B
:1034800001001149086008464068104908400E498B
:103490004860084600680E4908400B490860084625
:1034A000006820F4802008600846406820F4FE0090
:1034B00048604FF41F008860FFF767FF4FF000601F
:1034C0000449086010BD0000001002400000FFF831
:1034D000FFFFF6FE08ED00E010B50121274800F0DF
:1034E00077F8002848D00121244800F053F82448F8
:1034F0000068002805DD22480068401E2049086059
:1035000003E00021084600F0F1FE1E480068002894
:1035100005DD1C480068401E1A49086003E00021D0
:10352000012000F0E3FE1648006840B91548006825
:1035300028B91548007810B90120134908701348BC
:103540000088052805DD11480088401E0F490880C5
:1035500012E00E48008805280EDC0C48008801287F
:103560000ADD20210A48FFF76FFC28B1002000F097
:10357000FBFE00200549088010BD0000002C014022
:1035800044020020480200204002002042020020A5
:1035900000080140CA430282704721B1028842F00C
:1035A0000102028004E002884FF6FE731A40028096
:1035B000704731B1B0F8442042F40042A0F84420F2
:1035C00005E0B0F84420C2F30E02A0F84420704792
:1035D00030B50246002000230024158A05EA0103C5
:1035E000958905EA010413B10CB1012000E0002027
:1035F00030BD1AB183890B43838102E083898B43F9
:103600008381704770B5002400220023058C4FF69B
:10361000FE7635400584028C8388048B4FF68F75C7
:103620002C40B51E2C400D882C43751E2A400D8958
:103630002A434D882A43144DA8420BD0134DA8426B
:1036400008D0134DA84205D0124DA84202D0124D09
:10365000A84213D14FF6F7752A404D892A434FF6F9
:10366000FB752A408D882A434FF6FF652B404FF6A5
:10367000FF552B408D892B43CD892B4383800483B9
:10368000CD888586028470BD002C01400034014045
:1036900000400140004401400048014070B5002254
:1036A00000230024058C4EF6FF7635400584038CFC
:1036B0008488828B48F6FF752A404FF6FF452A40E2
:1036C0000D884FF6FF7606EA05252A434DF6FF756D
:1036D0002B400D8906EA05352B434D8806EA053552
:1036E0002B430B4DA84202D00A4DA84208D14BF6FD
:1036F000FF752C408D894FF6FF7606EA85152C4321
:1037000084808283CD88A0F84050038470BD00007F
:10371000002C01400034014081867047A0F8401021
:1037200070470000002202881D4B98420ED01D4BAE
:1037300098420BD0B0F1804F08D01B4B984205D077
:103740001A4B984202D01A4B984204D14FF68F730D
:103750001A404B881A43174B984207D0164B984291
:1037600004D04FF6FF431A40CB881A4302808B885F
:1037700083850B8803850A4B98420BD0094B9842EE
:1037800008D00E4B984205D00D4B984202D00D4BFD
:10379000984201D10B7A038601238382704700008F
:1037A000002C0140003401400004004000080040AB
:1037B000000C004000100040001400400040014098
:1037C0000044014000480140F8B540F225514C4802
:1037D00000F004F9002862D040F22551484800F07A
:1037E000C4F8474800F0B6F9C6B20A2E58D1454889
:1037F000006800B9F8BD444801680068401C424AAE
:10380000106042484654424A694600F0FDFB0446B7
:10381000002C22DAE01C48B900203A4908603A49F5
:10382000086020213948FCF7C2FDE3E7A01C20B95D
:1038300038A1334801F087F905E0601C18B93BA1B5
:103840002F4801F080F900202E4908602E490860B9
:1038500021212E48FCF7ABFDCCE72D49009800F064
:10386000ADFA0446002C11DAA01C28B9284834A16E
:103870000268234801F067F90020224908602249C4
:10388000086021212148FCF792FDB3E700201D4983
:1038900008601D49086021211C48FCF788FD2CE0C8
:1038A00018480068202805D10020164908601649EC
:1038B00008609FE700250BE013480068401B401E8E
:1038C0001249085C10490968491B104A50546D1C84
:1038D0000D4800680B490968401AA842ECD80B480B
:1038E00008490968465407480068401C05490860B3
:1038F00005480068401C0449086000BF7AE70000E2
:1039000000380140380200203C02002078020020EC
:103910009C0200200A74686520706172616D2069E4
:103920007320746F6F206C6F6E670A000A746F6F7C
:10393000206D616E7920706172616D0A0000000077
:103940000D0A6E6F742066696E6420636F6D6D6D15
:10395000616E643A25730A0001F40072B2F5007FCB
:1039600000D100BFCA430280704710B50022002377
:1039700040F66A14A14200D100BF0A12012494400B
:10398000A3B2DC43048010BD10B502460020108AAB
:103990004FF2FF0318400B884C8823438C88234345
:1039A000CC8823431843108210BD21B1828942F490
:1039B0000052828104E082894DF6FF731A408281B1
:1039C000704702460020B1F5007F00D100BF138888
:1039D0000B400BB1012000E00020704770B502469B
:1039E000002400230025002040F66A16B14200D1D1
:1039F00000BFC1F3421501F01F03012606FA03F3CD
:103A0000012D02D19689334006E0022D02D1168A9B
:103A1000334001E0968A33400C12012606FA04F482
:103A20001688344013B10CB1012000E0002070BDB5
:103A3000F0B50346002400260025002040F66A1752
:103A4000B94200D100BF1846C1F3421401F01F066D
:103A5000012707FA06F5012C01D10C3004E0022CF5
:103A600001D1103000E014301AB107682F4307600D
:103A700002E00768AF430760F0BD00002DE9F047A2
:103A800086B005460E460024A24600BFA146002788
:103A9000B08900B100BF2F462C8A4CF6FF7004405D
:103AA000F08804432C82AC894EF6F3100440B088B1
:103AB00031890843718908430443AC81AC8A4FF6CD
:103AC000FF400440B0890443AC8201A8FFF746FBE5
:103AD0001F48874202D1DDF810A001E0DDF80CA0FC
:103AE000A88900F4004040B10AEBCA0000EB0A10BC
:103AF00031684900B0FBF1F807E00AEBCA0000EBBF
:103B00000A1031688900B0FBF1F86420B8FBF0F0CE
:103B100004012009642101FB1089A88900F40040F8
:103B200040B1322000EBC900B0FBF1F000F007001B
:103B3000044308E0322000EB09106421B0FBF1F0EF
:103B400000F00F0004432C8106B0BDE8F0870000B0
:103B50000038014001468888C0F308007047C1F36F
:103B600008028280704700BFFEE7000070B504467F
:103B70000D4618203649C8700320887035488442A5
:103B80000DD1401508803448FFF7D3F8482030495C
:103B9000C870201508803048FFF7CBF812E02F4896
:103BA00084420ED110202A4908802B48FFF7C1F823
:103BB00048202749C870082008802748FFF7B9F82F
:103BC00000E070BD26480560002025498880C88037
:103BD000088188810C2048810020224908804FF408
:103BE0000070888000204880C8802046FFF7CCFE07
:103BF0001B492046FFF742FF01212046FFF7D5FE73
:103C000040212046FFF7A8FE012240F22551204620
:103C1000FFF70EFF4FF4E060FFF7DEF90D48844236
:103C200003D125201049087007E00C48844203D1D5
:103C300026200D49087000E0C3E700200A494870BB
:103C400088700120C8700846FFF78EF900BFB8E7FA
:103C500044000020003801400008014000440040BA
:103C6000680200204C00002048000020490050EA73
:103C7000C12018BF04204A0D18BF40F0010040F2D7
:103C8000FF72B2EB515F08BF40F00200012808BF8D
:103C90000520704740F2013200204FF0E04101F072
:103CA00018BD0000024A0020110701F012BD0000FB
:103CB00001FDFFFF10B50446D1E9000100F002F854
:103CC000206010BDF8B504460D466A4600F05EFB64
:103CD00000987E30009000281FDC0022134620460A
:103CE000294601F03FF918D0002140F608004FF0B6
:103CF000000006462046294600F096FF044640F69E
:103D0000080006EA00014FF0000034F0004004BF54
:103D10000220FCF739FC2046F8BD0098FF280DDB97
:103D20000220FCF731FC002213462046294601F010
:103D3000A7FA8CBF04484FF0FF40F8BD2046294643
:103D4000BDE8F84000F070BF000080FF10B50446E9
:103D50000A46D4E90003194600F016FCC4E9000144
:103D600010BD30380A2801D201207047002070476A
:103D700010B5044624B140210448FFF770F803E071
:103D800040210248FFF769F810BD0000000C014017
:103D900030B583B00446FCF7F2FB05460020CDE9C0
:103DA0000000024621466846FCF7CCFE2846FCF798
:103DB000EBFBDDE9000103B030BD00002DE9F0416F
:103DC00005460E4600240A2715B9601EBDE8F0819D
:103DD000002418E004EB44020D4B03EB02103168A1
:103DE000FCF70CFB70B90BA10B4800F0ACFE04EB28
:103DF0004400074901EB00103146C26A284690474B
:103E00000020E3E7641CBC42E4D36FF00100DDE76F
:103E1000580000200A0000000038014070B5044638
:103E20000D46012000F0A0FA4FF4FA600349088023
:103E300003A1094800F087FE70BD00004202002087
:103E40007265636965766520636D6420737563636D
:103E500065737366756C0A00003801402DE9F04FF8
:103E600087B01548006801F041FA04460D46134832
:103E7000006801F03BFA06460F461148006801F061
:103E800035FA804689460F48006801F02FFA8246CD
:103E900052460B460CA11148CDE90089CDE90267D5
:103EA000CDE9044500F04FFE0DA10C4800F04BFE9B
:103EB00007B0BDE8F08F0000400000203C0000206B
:103EC0003800002034000020706172616D2025668A
:103ED0002025662025662025660A0000003801405E
:103EE00067727420646F6E650D0A00002DE9F04161
:103EF00005460F460A26012D05DD0EA10F4800F0EC
:103F000022FEBDE8F08100240FE004EB44000C49E0
:103F100001EB001000F1090304EB440001EB001277
:103F200008A1064800F00FFE641CB442EDD300BFA8
:103F3000E7E700006572726F720A00000038014006
:103F400058000020636D643A25732020207573614A
:103F500067653A25730A000070B504460D460220D5
:103F60000349087003A1084800F0EDFD70BD000092
:103F70003200002073657420676F20686F6D6520C4
:103F8000646F6E650A0000000038014010B500241F
:103F900006E00A20FCF7B4F9034941F82400641C48
:103FA000032CF6DB10BD00009C0200202DE9F0413F
:103FB00005460C46032D05D00BA10F4800F0C3FDAC
:103FC000BDE8F0816068FCF7E5F90746A068FCF7FA
:103FD000E1F906463146384600F046FD07A106489D
:103FE00000F0B1FD00BFEBE777726F6E6720706184
:103FF00072616D0A00000000003801407365742092
:10400000646F6E650A0000002DE9F04103460F461B
:10401000144600250022002128466D1C1E5C25E068
:10402000202E14D11AB928466D1C1E5C1EE00329EF
:1040300002D1081FBDE8F081002054F821C00CF81F
:104040000200491C002228466D1C1E5C0EE0092A55
:1040500002D16FF00100EDE754F821801046521CA8
:1040600008F8006028466D1C1E5C00BF0D2ED7D1DD
:1040700019B912B96FF00200DCE74FF000080846EA
:10408000491C54F8200000F8028039600020D1E774
:1040900071B600BF0648006800F4E06005490843B7
:1040A000001D03490860BFF3408F00BF00BFFEE75B
:1040B0000CED00E00000FA052DE9F04F87B001207B
:1040C000154908701548006801F010F904460D46BE
:1040D0001348006801F00AF906460F4611480068C7
:1040E00001F004F9804689460F48006801F0FEF8A7
:1040F000824652460B460DA11148CDE90089CDE913
:104100000267CDE9044500F01EFD0EA10C4800F049
:104110001AFD07B0BDE8F08F3200002040000020FB
:104120003C000020380000203400002070617261E3
:104130006D2025662025662025662025660A00005C
:10414000003801407365742072756E20646F6E656F
:104150000D0A00002DE9F04781460D46B9F1030F25
:1041600005D01FA1224800F0EEFCBDE8F08768688A
:10417000FFF70EFE074600F057FD1E490860A868CD
:10418000FFF706FE074600F04FFD1B490860FEF7EB
:10419000B1FD3420FEF70EFD1848FEF711FD06466E
:1041A000042E01D0FEF74CFD154C14482168FEF793
:1041B0005FFD144C1148001D2168FEF759FD0D4CA0
:1041C0000E4808302168FEF753FD0B4C0B480C30AD
:1041D0002168FEF74DFDFEF733FD00BFC5E7000087
:1041E00077726F6E6720706172616D0A0000000067
:1041F0000038014038000020340000200050010841
:10420000400000203C0000202DE9F04781460D468B
:10421000B9F1030F05D01FA1224800F094FCBDE8BE
:10422000F0876868FFF7B4FD074600F0FDFC1E4903
:104230000860A868FFF7ACFD074600F0F5FC1B49D5
:104240000860FEF757FD3420FEF7B4FC1848FEF76F
:10425000B7FC0646042E01D0FEF7F2FC124C1448BF
:104260002168FEF705FD114C1148001D2168FEF77D
:10427000FFFC104C0E4808302168FEF7F9FC0E4C8C
:104280000B480C302168FEF7F3FCFEF7D9FC00BFA9
:10429000C5E7000077726F6E6720706172616D0A0A
:1042A0000000000000380140400000203C000020D9
:1042B00000500108380000203400002070B504468A
:1042C0000D4600200349087003A1074800F03BFC9D
:1042D00070BD0000320000207365742073746F702D
:1042E00020646F6E650A00000038014070B5044616
:1042F0000D4654B90C48006805FB00F606EBD67075
:10430000C0F34F010948FFF707FA012C0AD106480C
:10431000006805FB00F606EBD670C0F34F010348BA
:10432000FFF7FCF970BD00004C020020002C01409A
:10433000014642F228324A434FF0E0235A610022FC
:104340009A6101221A6100BF4FF0E022106900F06B
:1043500001021AB100F48032002AF5D000224FF099
:10436000E0231A619A61704710B504462CB14FF4EE
:1043700080610548FEF773FD04E04FF48061024858
:10438000FEF76BFD10BD00000010014010B5144693
:1043900000222260114A21F000439342A8BF10BDC1
:1043A00053EA000208BF10BDB3F5801FA8BF226802
:1043B00007DA362201F08DF96FF0350221F0004363
:1043C0002260DFF81CC06FF31E510CEB23531A441C
:1043D00041F0FF5141F00051226010BD0000F07F1C
:1043E00002FCFFFF2DE9FC5F0024002001900090FB
:1043F000814601212948FEF73AFA00BF02212748E9
:10440000FEF798F90028F9D02448FEF78FF900B29A
:104410000090009800F0E2FD07460022204B00F0DB
:1044200049FC054600221F4B00F02CFE824600F09E
:10443000FBFB8146484600F059FF054600221A4B17
:1044400000F01EFF01D24FF07F59002413E01748FF
:1044500050F82410019800F075FF0190042C03D14E
:10446000124840F8249008E01049601C51F82000E0
:1044700041F82400641C052CE9DB00BF019800F022
:1044800035FF07460022074B00F014FC054600F0FC
:10449000CBFB81464846BDE8FC9F0000002401405C
:1044A00000408F40000014400000F83FBC02002094
:1044B0002DE9FC5F0024002001900090814601213D
:1044C0002348FEF7D4F900BF02212148FEF732F954
:1044D0000028F9D01E48FEF729F900B20090009894
:1044E00000F07CFD074600221A4B00F0E3FB054676
:1044F000194A1A4B00F0C6FD824600F095FB814632
:10450000002413E0164850F82410019800F01AFF18
:104510000190042C03D1124840F8249008E010497F
:10452000601C51F8200041F82400641C052CE9DBD4
:1045300000BF019800F0DAFE07460022094B00F0A8
:10454000B9FB054600F070FB81464846BDE8FC9F7C
:104550000028014000408F408B6CE7FBA971304080
:10456000D002002000001440F8B507460C4615465E
:104570001E46ADF800408DF802508DF80360694684
:104580003846FEF7D6FBF8BD2DE9F04106460C464D
:1045900040F2FF75174635EA14502BD0002213461F
:1045A000304600F0DFFC25D03A463046214601F087
:1045B00090F806460C4635EA145010D000221346F7
:1045C000304600F0CFFC15D10220FBF7DDFFFFF7EE
:1045D00069FB0A46214662F31E01BDE8F081022014
:1045E000FBF7D2FFFFF756FB0A46214662F31E0196
:1045F000BDE8F08130462146BDE8F08188B000205A
:104600000790069000F080F94FF4E1318048FFF701
:10461000ADFA80A17E4800F096FAFFF7B7FC00F0F3
:104620009DF981480068814908607F484068804959
:1046300008607D4880687F4908607B48C0687E4983
:1046400008607A48006800F051FE04460D4678483C
:10465000006800F04BFE06460F467648006800F002
:1046600045FE804689467448006800F03FFE824659
:1046700052460B4671A16648CDE90089CDE9026733
:10468000CDE9044500F05FFA4FF47A7000F026F9A6
:10469000FEF7E8FB0020FFF767FE002000F0D2F9EC
:1046A000002000F00BF90020FFF762FB00BF08219B
:1046B0006748FEF7C9FB08B96648079010216448AF
:1046C000FEF7C2FB08B963480690002062490870F3
:1046D000DDE9061000F0C8F90020604908704BE0E1
:1046E00008215B48FEF7B0FB00B30120FFF720FE76
:1046F00008215748FEF7A8FBC0B15848007800F0E1
:10470000010098B955480078C0F3400020B100215D
:10471000084600F0A9F903E05149002000F0A4F98F
:104720004E48007840F001004C490870102148487C
:10473000FEF78AFB00B30120FFF7FAFD1021444881
:10474000FEF782FBC0B145480078C0F3400098B93D
:104750004248007800F0010020B10021084600F036
:1047600083F903E000213E4800F07EF93B480078E1
:1047700040F0020039490870384800780328AFD16A
:10478000002038490860486037A1214800F0DBF973
:1047900016E03148007898B10020304908703F4A4F
:1047A0000B461B7802EBC30251683C4A2B4B1B782B
:1047B00052F8330000F058F900203949087000E041
:1047C000E7E700BF22E024480078012819D114202F
:1047D000FFF7AEFD32480078012807D1FEF75AF8FE
:1047E00044F62060FFF7A4FDFEF774FB2D48007827
:1047F000012806D12CA1064800F0A5F9002029497E
:10480000087015480078022800D150E7DBE7000067
:104810000038014073797374656D20696E6974693D
:104820006E672E2E2E0A0000005001084000002066
:104830003C000020380000203400002070617261CC
:104840006D2025662025662025662025660A000045
:1048500000080140E0B1FFFF3200002030000020DE
:10486000F0D8FFFF2000002073797374656D206914
:104870006E697420646F6E65210A706C6561736582
:10488000207075736820D4CBD0D020746F207374DF
:104890006172742073797374656D0A0000000020E2
:1048A0004002002054000020676F20746F2074685D
:1048B00065206E65787420706F730A0010B5044629
:1048C00024B120210448FEF7CAFA03E0202102485F
:1048D000FEF7C3FA10BD0000000C014010B50446FD
:1048E0002046FEF783FB1023032219010548FFF73A
:1048F0003BFE1023032259010248FFF735FE012039
:1049000010BD00000010014010B5FEF701FC00F0E2
:10491000E5F801218803FEF7EBFB01210420FEF7F7
:10492000E7FB01210820FEF7E3FB01211020FEF741
:10493000DFFB0121C802FEF7DBFB01210846FEF781
:10494000C7FB01214802FEF7D3FB01218802FEF7D5
:10495000CFFB4FF4C060FEF73FFB10BD10B5022047
:10496000334908800020C870032088703148FEF762
:10497000E0F9002030494871C8604FF46020886039
:104980000020086001200874002008712B48FDF702
:10499000E5FE0523012211462848FDF707FF012106
:1049A0002648FDF7AEFE2548FDF75CFF00BF234813
:1049B000FDF7C9FE0028FAD12048FDF763FF00BFCC
:1049C0001E48FDF7A9FE0028FAD1042018490880E6
:1049D0001848FEF7AEF9002017494871C8604FF437
:1049E00060208860002008600120087400200871A1
:1049F0001348FDF7B3FE0523012202211048FDF7FD
:104A0000D5FE01210E48FDF77CFE0D48FDF72AFF7B
:104A100000BF0B48FDF797FE0028FAD10848FDF7C4
:104A200031FF00BF0648FDF777FE0028FAD110BD20
:104A30005002002000080140A8020020002401408C
:104A40000028014010B504462CB14FF40061054820
:104A5000FEF705FA04E04FF400610248FEF7FDF9A5
:104A600010BD00000010014070B505460C466442C0
:104A7000002D06DA4FF480711548FEF7F0F96D420B
:104A800004E04FF480711248FEF7E7F9002C06DAD3
:104A90004FF400710E48FEF7E2F9644204E04FF46F
:104AA00000710B48FEF7D9F90A4805600A4804600E
:104AB0000848006818B101210020FFF717FC0648DC
:104AC000006818B101210846FFF710FC70BD000016
:104AD00000100140440200204802002010B5FEF7FB
:104AE00017FB4FF48030FEF7D5FBFEF731FC044690
:104AF000012C27D10220FEF7F1F81020FEF7AAF8CA
:104B00000020FEF705FC0020FEF7B8FB0020FEF7B2
:104B1000F3FBA002FEF7E4FB4FF4E0112004FEF7E4
:104B2000FDFB0120FEF7F4FB00BF3920FEF780FB00
:104B30000028FAD00220FEF7FFFB00BFFEF796FB2D
:104B40000828FBD110BD0FB430B5A3B00546002432
:104B500028A80190812102A8019B279AFBF700FC5D
:104B600080212846FEF7F8FE26E002A8005D0A280C
:104B700013D10D212846FEF7F2FF00BF8021284601
:104B8000FEF71FFF0028F9D02046621CD4B202AA0B
:104B9000115C2846FEF7E3FF07E02046621CD4B212
:104BA00002AA115C2846FEF7DAFF00BF80212846E2
:104BB000FEF707FF0028F9D0802C03DA02A8005D79
:104BC0000028D2D10020019023B030BC5DF814FB46
:104BD00010B500290AD00878002807D00548784485
:104BE000FBF70CFC002801D0002010BD02487844DF
:104BF00010BD00008E0C0000860C000010B50029CE
:104C00000AD00878002807D005487844FBF7F6FB5F
:104C1000002801D0002010BD0248784410BD0000DB
:104C20007E0C0000760C000021F00042A2F16052E0
:104C3000B2F5801F01F0004328BFD2F17F6C0BD981
:104C40005FEA001C43EAC20242EB507018BF704793
:104C500028BF20F001007047B2F5801FBCBF184686
:104C600070474FEA410C1CF5001F02D2084600F0C5
:104C700051BC70B500F0B0FA00000089FFF7F6BF34
:104C80004FF00040A0F580007047000002494FF04F
:104C9000000000F0ECBC00BF0000F87F491058BFD6
:104CA000C1F140415B1058BFC3F140438B42EFF369
:104CB000008070472DE9C04130B4DFF8A0C23CEA63
:104CC000111418BF3CEA131400F0EC8081EA0305CC
:104CD0001CEA111444EAD57418BF1CEA131500F03D
:104CE000C780A4EB05044FF0004545EAC12145EA21
:104CF000C32341EA505143EA525304F17F7499426D
:104D000004F500344FEAC0204FEAC22208BF9042A7
:104D100000F09C804FEA13650FF24016765D4FEA73
:104D2000134506FB05F7C7F1807706FB07F74FEA47
:104D3000D737A7FB03687642C8F58038A7FB06CEB5
:104D400038BFA8F1010807FB08E64FF0000EA6FBEC
:104D5000028CE6FB03CEDCF1000CCEF1004E38BF36
:104D6000AEF1010EA6FB0C584FF000074FF0000506
:104D7000E6FB0E87A1FB08C6A0FB07CE16EB0E06CE
:104D800045F10005E1FB076515F1E04E7EBFA4F596
:104D900080345FEA46066D4116F1800745F1000553
:104DA0004FEA17274FEA066647EA0567A6F1DE468F
:104DB000B6F1805F4FEA15251FD9384624F0010C63
:104DC00005EBC471BCF1FE6F01EB0C1102D8F0BC15
:104DD000BDE8008124425CBF01F5801E9EEAC47FCD
:104DE00002D4F0BCBDE80081244238D4F0BCA1F16B
:104DF000C041BDE8004100F03DBA4FEAD22242EA8C
:104E000043524FEAD323A7FB02864FEAD02040EA61
:104E1000415007FB03661EEA0E0F4FEAD12105FB46
:104E2000026658BFA6EB0056B6EB00564FEA520E8C
:104E30004EEAC37E18EB0E0E56EB530EBDD518EBA3
:104E400002085E417F1C55F10005B6E74FF480155E
:104E50004FF000074FF000064FF00008ADE7F0BC40
:104E60004FF0000001F1C04101F00041BDE80081B8
:104E700011EA0C1F0CEA131500D00CE013EA0C1F0A
:104E800000F025804FF00000F0BC81EA030101F042
:104E90000041BDE80081F0BCBDE8004181EA0301AA
:104EA00000F0E8B9F0BCBDE8004170B500F094F93D
:104EB000097EFC3E00F007B881EA03014FF00000D4
:104EC00001F00041704781EA030100F0D3B9F0BC62
:104ED000BDE800414FF0000021497047FFFDFBF99C
:104EE000F7F5F4F2F0EEEDEBE9E8E6E4E3E1E0DE1D
:104EF000DDDBDAD8D7D5D4D3D1D0CFCDCCCBCAC88F
:104F0000C7C6C5C4C2C1C0BFBEBDBCBBBAB9B8B7B5
:104F1000B6B5B4B3B2B1B0AFAEADACABAAA9A8A8A8
:104F2000A7A6A5A4A3A3A2A1A09F9F9E9D9C9C9B76
:104F30009A99999897979695959493939291919021
:104F40008F8F8E8E8D8C8C8B8B8A898988888787B2
:104F50008685858484838382828181800000FF0727
:104F60000000F87F51EA030C17D41CF5801F58BFCE
:104F7000BCF5801F00F10680994218BF704708BF3A
:104F80009042704707D711F5801F58BF13F5801F57
:104F900019D499427047894270471CF5801F08D583
:104FA000BCF5801FF7D58B4218BF704708BF8242FF
:104FB00070474FF4001C1CEB410F38BF1CEB430F34
:104FC00001D28B42704770B500F006F99224490077
:104FD0004FF000514FF08053FFF760BE10F00042D9
:104FE00048BF4042B0FA80F310FA03F10AD0C3F18F
:104FF0001D0303F580634FEA415002EB035202EBBD
:10500000D12170474FF000007047000051EA030CB7
:1050100017D41CF5801F58BFBCF5801F00F1068017
:10502000994218BF704708BF9042704707D711F5E3
:10503000801F58BF13F5801F19D4994270478942C9
:1050400070471CF5801F08D5BCF5801FF7D58B4233
:1050500018BF704708BF824270474FF4001C1CEB1A
:10506000410F38BF1CEB430F01D28B42704770B524
:1050700000F0B2F8922449004FF000514FF08053F5
:10508000FFF70CBEDFF848C170B51CEA111E1EBF49
:105090001CEA13159EEA0C0F95EA0C0F00F06F80C6
:1050A00081EA030423EA4C134EEAD47E21EA4C1130
:1050B00041F4801143F48013AE44A1FB024CA0FBE9
:1050C0000365AEF17F7E361955EB0C05A1FB034C51
:1050D0004CF10003A0FB021C16EB0C06654153F1DA
:1050E0000003094218BF46F0010613F4007F0BD1FC
:1050F0004FEA03314FEA0530340341EA155140EAE3
:1051000016506FF003020AE04FEAC3214FEAC520B0
:10511000F40241EA555140EA56506FF0020202EBA8
:105120002E4201EB025585EACE710AD05FEA440CAB
:1051300018BF24F0004450F1000041F1000120EAC2
:10514000D47040F2FE7C624500D270BDA84214BF0C
:105150004FF080444FF04044002E08BF0024BEF1C1
:10516000806FA8BFA1F1C041BDE8704080F282808D
:105170004FF0000001F1C04101F0004170479EEA8C
:105180000C0F0CEA131518BF95EA0C0F06D04FF060
:10519000000081EA030E0EF0004170BD00F01CF823
:1051A0008900013E00F007B800F009B84FEA430C4F
:1051B0005FEA5C5C08D081EA030100F05BB84FEA6B
:1051C000410C5FEA5C5CF6D14FF00000014970478A
:1051D0000000FF070000F87F0EF1020E2EF0030E14
:1051E0005EF8046B364205D4012A43EB030515F53E
:1051F000001F12D8012841EB010C1CF5001F0CD830
:105200000ED14FEAD17C15F5001F0CEB4C0C0CF1C4
:10521000020C08BF4CEBD37C04E04FF0080C01E01B
:105220004FEAD37C0CEB4C0526FA05F606F0070690
:10523000B6F1040C06D20EEB860CBDE870404CF0C3
:10524000010C6047DFE80CF0090B02024FF000414F
:105250004FF00000A1F5002170BD1946104601284D
:1052600051EB010418BFD4F5001484BF002001F0F5
:10527000004170BD0808A0F500114FEA31017047E8
:1052800053EA010C17D41CF5801F58BFBCF5801FD2
:1052900000F106808B4218BF704708BF82427047FA
:1052A00007D713F5801F58BF11F5801F19D48B4203
:1052B00070479B4270471CF5801F08D5BCF5801FC6
:1052C000F7D5994218BF704708BF904270474FF416
:1052D000001C1CEB430F38BF1CEB410F01D299425D
:1052E00070470FB40CBC03BCFFF7C1BE43004FEACC
:1052F000D30C4FEA3C0C43401FBF40070CF16051F8
:1053000013F0FE4F70471CF0006F03D100200CF02B
:10531000004170470CF0004343EA507010B540EA7A
:10532000CC0000F0B1F800BF000000924FEA00018D
:10533000FFF7A0BF4FF000414FF00000A1F50021A2
:105340007047000090EA010F48BF81F0004100F172
:105350001E81421A3CBF801A89184FEAD0524FF082
:105360007F4C1CEA410FA2EBD15318BF9CEA026F9D
:1053700000F03B804FF0004C4CEA00204CEA012149
:1053800021FA03FC10EB0C0C1ED202F1FF325FEA93
:105390001C2040EBC25038BF70471CF07F0F4FEA13
:1053A000400C18BFBCF17F4F38BF7047C3F12003DA
:1053B000994008BF20F00100BCF17F4F38BF704713
:1053C000A0F1C04000F0A6B84FEA3C00000A40EB54
:1053D000C25028BF1CF0FF0F4FEA400CE6D018BFA8
:1053E000BCF17F4F38BF7047EAE79CEA026F05D0F7
:1053F00010EA5C0F08BF00F00040704710B500F0E5
:1054000043F800BF64FBBE3E401058BFC0F14040AF
:10541000491058BFC1F140418142EFF3008070470D
:1054200050EA010C00F113801CF5000F58BFBCF5C9
:10543000000F01D48842704707D710F5000F58BFFE
:1054400011F5000F15D488427047894270471CF54A
:10545000000F04D5BCF5000FF7D5814270474FF01F
:10546000807C1CEB400F38BF1CEB410F01D2814206
:10547000704710B500F008F8922449004FF0005032
:105480004FF08051FFF7C0BF0EF1020E2EF0030E59
:105490005EF8044B244204D44FEA4102B2F17F4F3C
:1054A00011D84FEA4003B3F17F4F0CD80ED14FEA29
:1054B000D07CB2F17F4F0CEB4C0C0CF1020C08BF0E
:1054C0004CEBD17C04E04FF0080C01E04FEAD17CBA
:1054D0000CEB4C0324FA03F404F00704B4F1040CBD
:1054E00006D20EEB840CBDE810404CF0010C604776
:1054F000DFE80CF0070802024FF00040A0F5800042
:1055000010BD0846420018BFD2F1807288BF00F07B
:10551000004010BDFF2141EAD050C005704751EA5C
:10552000000C00F113801CF5000F58BFBCF5000FF4
:1055300001D48142704707D711F5000F58BF10F50D
:10554000000F15D481427047894270471CF5000F47
:1055500004D5BCF5000FF7D5884270474FF0807C2A
:105560001CEB410F38BF1CEB400F01D28842704743
:1055700080EA010081EA000180EA0100FFF779BFBB
:1055800090EA010F48BF81F000413FF5E2AE421AB8
:1055900004D882F00042A0EB020011444FEAD0523E
:1055A0004FF07F4C1CEA410FA2EBD15318BF9CEA8D
:1055B000026F4AD04FF0004C4CEA00204CEA012127
:1055C00021FA03FCB0EB0C0C0FD412F0FE0F36D016
:1055D0005FEA4C001DD5001240EBC25038BF704747
:1055E0001CF03F0F18BF70470BE0A2F101025FEA09
:1055F0001C2040EBC25038BF70471CF07F0F18BF13
:105600007047C3F12003994014BF401E20F00100F1
:10561000704780084FEA122308BF7047B0FA80FC39
:10562000A2EB0C02CCF1280C60FA0CF093EA122FDA
:1056300004BF00EBC25070474FEAC3707047130AB3
:105640005FEADC1008BF7047F6E79CEA026F04D0FF
:1056500010EA5C0F08BF0020704710B5FFF714FF79
:1056600040DFF63E81F000407047FBF779BC0CF05C
:105670000F03092B08BF082000F05F800A2B0BD016
:10568000082B18BF704708BF1CF0400F0AD04FF01E
:1056900000004FF0000170471CF0400F18BF4FF0A2
:1056A000004070471CF0100F08D020F0704300F04D
:1056B0007F4242EAD3014FEA4370704700F06040F6
:1056C00021F07F4242EA000201F07F4040EA72701E
:1056D00070474FF0FF0C4CF4E06C1CEA11531CBFF8
:1056E0009CEA030C9445C2BFDA4201EB02517047B9
:1056F000002B0DD0BCF1000F0FD0002A01F00041AB
:10570000A4BF41F0E04141F07F614FF000007047DD
:1057100001F000414FF00000704750EA01334FF0B4
:105720009B0C18BF4CF0806C7FF4B0AA7047FBF75D
:1057300085BFFCF79FB9FCF729BB1CF4801F11D073
:105740001CF4E02F03D06FEACC31490070474FF0D2
:105750004050EFF3008222F0704242EA000282F3EE
:10576000008870474FF00000704700000000000004
:105770000000000030313233343536373839414299
:1057800043444546403058003031323334353637A3
:10579000383961626364656640307800040000084F
:1057A00000000000000000020001000010000000E6
:1057B00002400000000000A00000000005400000C2
:1057C000000000C8000000000C4000000000409CE9
:1057D00000000000194000000020BCBE00000000D6
:1057E00034400000BFC91B8E00000004B54000001B
:1057F000504BCFD06607E2CF010000006C410000A3
:105800003E8251AADFEEA73401000000D942000019
:10581000DCB5A0E23A301F97FFFFFFFFB445000060
:10582000FD25A0C8E9A3C14FFFFFFFFFFF3F000018
:105830000000008000000000FF3F0000000000802A
:1058400000000000985900080000002068020000D5
:105850006C0100086C5A000868020020E01000008B
:10586000C8010008000000000000F07F1C000000DC
:1058700043000000F8FFFFFF0C0000000E000000D6
:105880000F0000002E000000100100004300000087
:10589000F8FFFFFF00404040404040404040414151
:1058A00041414140404040404040404040404040F5
:1058B000404040404005020202020202020202028F
:1058C000020202020220202020202020202020028C
:1058D000020202020202909090909090101010101C
:1058E00010101010101010101010101010101010B8
:1058F000020202020202888888888888080808084C
:105900000808080808080808080808080808080817
:10591000020202024000000000000000000000003F
:105920000000000000000000000000000000000077
:105930000000000000000000000000000000000067
:105940000000000000000000000000000000000057
:105950000000000000000000000000000000000047
:105960000000000000000000000000000000000037
:105970000000000000000000000000000000000027
:105980000000000000000000000000000000000017
:10599000000000000000000023F4011A90048BDCDA
:1059A00005081A14042918290801385568656C700F
:1059B00028135072696E7420616C6C20636F6D6D7A
:1059C000616E64200486757361676513ED3E30086F
:1059D000087265626F6F747909011A1B9140306318
:1059E000756E000A1A6665656420666973681AB97F
:1059F000304C73746F9009213013BD424D08686FAD
:105A00006DA07C676F200C011713593F7A0852096B
:105A100021601A1DF06A6DE40C1C746573EE211A86
:105A2000AD601F73657453616C2A19094A200A011D
:105A3000193B5541301C54656DF32930490A011951
:105A40001A09F05B6765521909071A2070617261C3
:105A50006D1A5DC0810217012D01020304040009C3
:0C5A600000060708090204060800000008
:0400000508000131BD
:00000001FF
